{
  "_format": "hh-sol-artifact-1",
  "contractName": "WavePortal",
  "sourceName": "contracts/WavePortal.sol",
  "abi": [
    {
      "inputs": [],
      "stateMutability": "nonpayable",
      "type": "constructor"
    },
    {
      "inputs": [],
      "name": "getTotalWaves",
      "outputs": [
        {
          "internalType": "uint256",
          "name": "",
          "type": "uint256"
        }
      ],
      "stateMutability": "view",
      "type": "function"
    },
    {
      "inputs": [],
      "name": "getWaves",
      "outputs": [
        {
          "internalType": "uint256",
          "name": "",
          "type": "uint256"
        }
      ],
      "stateMutability": "view",
      "type": "function"
    },
    {
      "inputs": [],
      "name": "wave",
      "outputs": [],
      "stateMutability": "nonpayable",
      "type": "function"
    }
  ],
  "bytecode": "0x608060405234801561001057600080fd5b5061003c6040518060600160405280602481526020016107526024913961004160201b61013a1760201c565b6101c4565b6100dd816040516024016100559190610142565b6040516020818303038152906040527f41304fac000000000000000000000000000000000000000000000000000000007bffffffffffffffffffffffffffffffffffffffffffffffffffffffff19166020820180517bffffffffffffffffffffffffffffffffffffffffffffffffffffffff83818316178352505050506100e060201b60201c565b50565b60008151905060006a636f6e736f6c652e6c6f679050602083016000808483855afa5050505050565b600061011482610164565b61011e818561016f565b935061012e818560208601610180565b610137816101b3565b840191505092915050565b6000602082019050818103600083015261015c8184610109565b905092915050565b600081519050919050565b600082825260208201905092915050565b60005b8381101561019e578082015181840152602081019050610183565b838111156101ad576000848401525b50505050565b6000601f19601f8301169050919050565b61057f806101d36000396000f3fe608060405234801561001057600080fd5b50600436106100415760003560e01c80636fe15b44146100465780639a2cdc0814610050578063a9d42f7e1461006e575b600080fd5b61004e61008c565b005b6100586100e6565b604051610065919061040d565b60405180910390f35b610076610131565b604051610083919061040d565b60405180910390f35b600180600082825461009e9190610444565b925050819055506100e46040518060400160405280600d81526020017f2573206861732077617665642100000000000000000000000000000000000000815250336101d3565b565b60006101296040518060400160405280601781526020017f5765206861766520256420746f74616c2077617665732100000000000000000081525060015461026f565b600154905090565b60008054905090565b6101d08160405160240161014e919061038b565b6040516020818303038152906040527f41304fac000000000000000000000000000000000000000000000000000000007bffffffffffffffffffffffffffffffffffffffffffffffffffffffff19166020820180517bffffffffffffffffffffffffffffffffffffffffffffffffffffffff838183161783525050505061030b565b50565b61026b82826040516024016101e99291906103ad565b6040516020818303038152906040527f319af333000000000000000000000000000000000000000000000000000000007bffffffffffffffffffffffffffffffffffffffffffffffffffffffff19166020820180517bffffffffffffffffffffffffffffffffffffffffffffffffffffffff838183161783525050505061030b565b5050565b61030782826040516024016102859291906103dd565b6040516020818303038152906040527f9710a9d0000000000000000000000000000000000000000000000000000000007bffffffffffffffffffffffffffffffffffffffffffffffffffffffff19166020820180517bffffffffffffffffffffffffffffffffffffffffffffffffffffffff838183161783525050505061030b565b5050565b60008151905060006a636f6e736f6c652e6c6f679050602083016000808483855afa5050505050565b61033d8161049a565b82525050565b600061034e82610428565b6103588185610433565b93506103688185602086016104d6565b61037181610538565b840191505092915050565b610385816104cc565b82525050565b600060208201905081810360008301526103a58184610343565b905092915050565b600060408201905081810360008301526103c78185610343565b90506103d66020830184610334565b9392505050565b600060408201905081810360008301526103f78185610343565b9050610406602083018461037c565b9392505050565b6000602082019050610422600083018461037c565b92915050565b600081519050919050565b600082825260208201905092915050565b600061044f826104cc565b915061045a836104cc565b9250827fffffffffffffffffffffffffffffffffffffffffffffffffffffffffffffffff0382111561048f5761048e610509565b5b828201905092915050565b60006104a5826104ac565b9050919050565b600073ffffffffffffffffffffffffffffffffffffffff82169050919050565b6000819050919050565b60005b838110156104f45780820151818401526020810190506104d9565b83811115610503576000848401525b50505050565b7f4e487b7100000000000000000000000000000000000000000000000000000000600052601160045260246000fd5b6000601f19601f830116905091905056fea26469706673582212200e9901550d613bcb692f2519f0f4054e21713dd12bc1780441fcd2165c3db86c64736f6c63430008040033596f20796f204920616d206120636f6e747261637420616e64204920616d20736d617274",
  "linkReferences": {},
  "deployedLinkReferences": {}
}