{
    "_format": "hh-sol-artifact-1",
    "contractName": "WavePortal",
    "sourceName": "contracts/WavePortal.sol",
    "abi": [
        {
            "inputs": [],
            "stateMutability": "nonpayable",
            "type": "constructor"
        },
        {
            "inputs": [],
            "name": "getTotalWaves",
            "outputs": [
                {
                    "internalType": "uint256",
                    "name": "",
                    "type": "uint256"
                }
            ],
            "stateMutability": "view",
            "type": "function"
        },
        {
            "inputs": [],
            "name": "wave",
            "outputs": [],
            "stateMutability": "nonpayable",
            "type": "function"
        },
        {
            "inputs": [
                {
                    "internalType": "address",
                    "name": "",
                    "type": "address"
                },
                {
                    "internalType": "uint256",
                    "name": "",
                    "type": "uint256"
                }
            ],
            "name": "waves",
            "outputs": [
                {
                    "internalType": "string",
                    "name": "name",
                    "type": "string"
                },
                {
                    "internalType": "uint256",
                    "name": "totalWaves",
                    "type": "uint256"
                },
                {
                    "internalType": "uint256",
                    "name": "date",
                    "type": "uint256"
                }
            ],
            "stateMutability": "view",
            "type": "function"
        }
    ],
    "bytecode": "0x608060405234801561001057600080fd5b5061003c60405180606001604052806024815260200161095f6024913961004160201b6102141760201c565b6101c4565b6100dd816040516024016100559190610142565b6040516020818303038152906040527f41304fac000000000000000000000000000000000000000000000000000000007bffffffffffffffffffffffffffffffffffffffffffffffffffffffff19166020820180517bffffffffffffffffffffffffffffffffffffffffffffffffffffffff83818316178352505050506100e060201b60201c565b50565b60008151905060006a636f6e736f6c652e6c6f679050602083016000808483855afa5050505050565b600061011482610164565b61011e818561016f565b935061012e818560208601610180565b610137816101b3565b840191505092915050565b6000602082019050818103600083015261015c8184610109565b905092915050565b600081519050919050565b600082825260208201905092915050565b60005b8381101561019e578082015181840152602081019050610183565b838111156101ad576000848401525b50505050565b6000601f19601f8301169050919050565b61078c806101d36000396000f3fe608060405234801561001057600080fd5b50600436106100415760003560e01c806341dbe751146100465780636fe15b44146100785780639a2cdc0814610082575b600080fd5b610060600480360381019061005b9190610438565b6100a0565b60405161006f9392919061054d565b60405180910390f35b61008061016f565b005b61008a6101c9565b604051610097919061058b565b60405180910390f35b600060205281600052604060002081815481106100bc57600080fd5b9060005260206000209060030201600091509150508060000180546100e090610687565b80601f016020809104026020016040519081016040528092919081815260200182805461010c90610687565b80156101595780601f1061012e57610100808354040283529160200191610159565b820191906000526020600020905b81548152906001019060200180831161013c57829003601f168201915b5050505050908060010154908060020154905083565b600180600082825461018191906105c2565b925050819055506101c76040518060400160405280600d81526020017f2573206861732077617665642100000000000000000000000000000000000000815250336102ad565b565b600061020c6040518060400160405280601781526020017f5765206861766520256420746f74616c20776176657321000000000000000000815250600154610349565b600154905090565b6102aa8160405160240161022891906104cb565b6040516020818303038152906040527f41304fac000000000000000000000000000000000000000000000000000000007bffffffffffffffffffffffffffffffffffffffffffffffffffffffff19166020820180517bffffffffffffffffffffffffffffffffffffffffffffffffffffffff83818316178352505050506103e5565b50565b61034582826040516024016102c39291906104ed565b6040516020818303038152906040527f319af333000000000000000000000000000000000000000000000000000000007bffffffffffffffffffffffffffffffffffffffffffffffffffffffff19166020820180517bffffffffffffffffffffffffffffffffffffffffffffffffffffffff83818316178352505050506103e5565b5050565b6103e1828260405160240161035f92919061051d565b6040516020818303038152906040527f9710a9d0000000000000000000000000000000000000000000000000000000007bffffffffffffffffffffffffffffffffffffffffffffffffffffffff19166020820180517bffffffffffffffffffffffffffffffffffffffffffffffffffffffff83818316178352505050506103e5565b5050565b60008151905060006a636f6e736f6c652e6c6f679050602083016000808483855afa5050505050565b60008135905061041d81610728565b92915050565b6000813590506104328161073f565b92915050565b6000806040838503121561044b57600080fd5b60006104598582860161040e565b925050602061046a85828601610423565b9150509250929050565b61047d81610618565b82525050565b600061048e826105a6565b61049881856105b1565b93506104a8818560208601610654565b6104b181610717565b840191505092915050565b6104c58161064a565b82525050565b600060208201905081810360008301526104e58184610483565b905092915050565b600060408201905081810360008301526105078185610483565b90506105166020830184610474565b9392505050565b600060408201905081810360008301526105378185610483565b905061054660208301846104bc565b9392505050565b600060608201905081810360008301526105678186610483565b905061057660208301856104bc565b61058360408301846104bc565b949350505050565b60006020820190506105a060008301846104bc565b92915050565b600081519050919050565b600082825260208201905092915050565b60006105cd8261064a565b91506105d88361064a565b9250827fffffffffffffffffffffffffffffffffffffffffffffffffffffffffffffffff0382111561060d5761060c6106b9565b5b828201905092915050565b60006106238261062a565b9050919050565b600073ffffffffffffffffffffffffffffffffffffffff82169050919050565b6000819050919050565b60005b83811015610672578082015181840152602081019050610657565b83811115610681576000848401525b50505050565b6000600282049050600182168061069f57607f821691505b602082108114156106b3576106b26106e8565b5b50919050565b7f4e487b7100000000000000000000000000000000000000000000000000000000600052601160045260246000fd5b7f4e487b7100000000000000000000000000000000000000000000000000000000600052602260045260246000fd5b6000601f19601f8301169050919050565b61073181610618565b811461073c57600080fd5b50565b6107488161064a565b811461075357600080fd5b5056fea264697066735822122070fbdb65d5a07de01f6be533ecc60b86e29896bb1b1624e6d5831dc008fb903e64736f6c63430008040033596f20796f204920616d206120636f6e747261637420616e64204920616d20736d617274",
    "linkReferences": {},
    "deployedLinkReferences": {}
}